{
  "_format": "hh-sol-artifact-1",
  "contractName": "PostMessage",
  "sourceName": "contracts/PostMessage.sol",
  "abi": [
    {
      "anonymous": false,
      "inputs": [
        {
          "indexed": true,
          "internalType": "bytes32",
          "name": "categoryId",
          "type": "bytes32"
        },
        {
          "indexed": false,
          "internalType": "string",
          "name": "category",
          "type": "string"
        }
      ],
      "name": "CategoryCreated",
      "type": "event"
    },
    {
      "anonymous": false,
      "inputs": [
        {
          "indexed": true,
          "internalType": "bytes32",
          "name": "contentId",
          "type": "bytes32"
        },
        {
          "indexed": false,
          "internalType": "string",
          "name": "contentUri",
          "type": "string"
        }
      ],
      "name": "ContentAdded",
      "type": "event"
    },
    {
      "anonymous": false,
      "inputs": [
        {
          "indexed": true,
          "internalType": "bytes32",
          "name": "postId",
          "type": "bytes32"
        },
        {
          "indexed": true,
          "internalType": "address",
          "name": "postOwner",
          "type": "address"
        },
        {
          "indexed": true,
          "internalType": "bytes32",
          "name": "parentId",
          "type": "bytes32"
        },
        {
          "indexed": false,
          "internalType": "bytes32",
          "name": "contentId",
          "type": "bytes32"
        },
        {
          "indexed": false,
          "internalType": "bytes32",
          "name": "categoryId",
          "type": "bytes32"
        }
      ],
      "name": "PostCreated",
      "type": "event"
    },
    {
      "anonymous": false,
      "inputs": [
        {
          "indexed": true,
          "internalType": "bytes32",
          "name": "postId",
          "type": "bytes32"
        },
        {
          "indexed": true,
          "internalType": "address",
          "name": "postOwner",
          "type": "address"
        },
        {
          "indexed": true,
          "internalType": "address",
          "name": "voter",
          "type": "address"
        },
        {
          "indexed": false,
          "internalType": "uint80",
          "name": "reputationPostOwner",
          "type": "uint80"
        },
        {
          "indexed": false,
          "internalType": "uint80",
          "name": "reputationVoter",
          "type": "uint80"
        },
        {
          "indexed": false,
          "internalType": "int40",
          "name": "postVotes",
          "type": "int40"
        },
        {
          "indexed": false,
          "internalType": "bool",
          "name": "up",
          "type": "bool"
        },
        {
          "indexed": false,
          "internalType": "uint8",
          "name": "reputationAmount",
          "type": "uint8"
        }
      ],
      "name": "Voted",
      "type": "event"
    },
    {
      "inputs": [
        {
          "internalType": "string",
          "name": "_category",
          "type": "string"
        }
      ],
      "name": "addCategory",
      "outputs": [],
      "stateMutability": "nonpayable",
      "type": "function"
    },
    {
      "inputs": [
        {
          "internalType": "bytes32",
          "name": "_parentId",
          "type": "bytes32"
        },
        {
          "internalType": "string",
          "name": "_contentUri",
          "type": "string"
        },
        {
          "internalType": "bytes32",
          "name": "_categoryId",
          "type": "bytes32"
        }
      ],
      "name": "createPost",
      "outputs": [],
      "stateMutability": "nonpayable",
      "type": "function"
    },
    {
      "inputs": [
        {
          "internalType": "bytes32",
          "name": "_categoryId",
          "type": "bytes32"
        }
      ],
      "name": "getCategory",
      "outputs": [
        {
          "internalType": "string",
          "name": "",
          "type": "string"
        }
      ],
      "stateMutability": "view",
      "type": "function"
    },
    {
      "inputs": [
        {
          "internalType": "bytes32",
          "name": "_contentId",
          "type": "bytes32"
        }
      ],
      "name": "getContent",
      "outputs": [
        {
          "internalType": "string",
          "name": "",
          "type": "string"
        }
      ],
      "stateMutability": "view",
      "type": "function"
    },
    {
      "inputs": [
        {
          "internalType": "bytes32",
          "name": "_postId",
          "type": "bytes32"
        }
      ],
      "name": "getPost",
      "outputs": [
        {
          "internalType": "address",
          "name": "",
          "type": "address"
        },
        {
          "internalType": "bytes32",
          "name": "",
          "type": "bytes32"
        },
        {
          "internalType": "bytes32",
          "name": "",
          "type": "bytes32"
        },
        {
          "internalType": "int72",
          "name": "",
          "type": "int72"
        },
        {
          "internalType": "bytes32",
          "name": "",
          "type": "bytes32"
        }
      ],
      "stateMutability": "view",
      "type": "function"
    },
    {
      "inputs": [
        {
          "internalType": "address",
          "name": "_address",
          "type": "address"
        },
        {
          "internalType": "bytes32",
          "name": "_categoryID",
          "type": "bytes32"
        }
      ],
      "name": "getReputation",
      "outputs": [
        {
          "internalType": "uint80",
          "name": "",
          "type": "uint80"
        }
      ],
      "stateMutability": "view",
      "type": "function"
    },
    {
      "inputs": [
        {
          "internalType": "bytes32",
          "name": "_postId",
          "type": "bytes32"
        },
        {
          "internalType": "uint8",
          "name": "_reputationTaken",
          "type": "uint8"
        }
      ],
      "name": "voteDown",
      "outputs": [],
      "stateMutability": "nonpayable",
      "type": "function"
    },
    {
      "inputs": [
        {
          "internalType": "bytes32",
          "name": "_postId",
          "type": "bytes32"
        },
        {
          "internalType": "uint8",
          "name": "_reputationAdded",
          "type": "uint8"
        }
      ],
      "name": "voteUp",
      "outputs": [],
      "stateMutability": "nonpayable",
      "type": "function"
    }
  ],
  "bytecode": "0x608060405234801561001057600080fd5b50611ccb806100206000396000f3fe608060405234801561001057600080fd5b50600436106100885760003560e01c806393e43bbe1161005b57806393e43bbe14610125578063b2fae27214610159578063e1957bf314610189578063f2287b3e146101a557610088565b80632e0dcbf71461008d57806333032b09146100a9578063473b084c146100c55780635cc15001146100f5575b600080fd5b6100a760048036038101906100a291906113d4565b6101c1565b005b6100c360048036038101906100be919061132c565b610250565b005b6100df60048036038101906100da9190611303565b61040f565b6040516100ec91906116b3565b60405180910390f35b61010f600480360381019061010a9190611303565b6104b4565b60405161011c91906116b3565b60405180910390f35b61013f600480360381019061013a9190611303565b610559565b604051610150959493929190611613565b60405180910390f35b610173600480360381019061016e91906112c7565b61061a565b6040516101809190611735565b60405180910390f35b6101a3600480360381019061019e9190611398565b61068a565b005b6101bf60048036038101906101ba9190611398565b610c08565b005b600082826040516020016101d692919061168f565b604051602081830303815290604052805190602001209050828260016000848152602001908152602001600020919061021092919061119b565b50807f42588c2617ffb1b380decf15f2134bd59bb002295bda52fe6e5bf92fc504d249848460405161024392919061168f565b60405180910390a2505050565b60003390506000848460405160200161026a92919061168f565b6040516020818303038152906040528051906020012090506000828783604051602001610299939291906115d6565b60405160208183030381529060405280519060200120905085856002600085815260200190815260200160002091906102d392919061119b565b50826003600083815260200190815260200160002060000160006101000a81548173ffffffffffffffffffffffffffffffffffffffff021916908373ffffffffffffffffffffffffffffffffffffffff160217905550866003600083815260200190815260200160002060010181905550816003600083815260200190815260200160002060020181905550836003600083815260200190815260200160002060040181905550817ffb281bb05c5ef4b3a5f374fffc0b351fe69873776a9d6c289682e1929cb4f08087876040516103ac92919061168f565b60405180910390a2868373ffffffffffffffffffffffffffffffffffffffff16827fdd56be40fa15d802b8ddf46fb1480b3bef291828e21d8c168f8f96368716d7e485886040516103fe929190611666565b60405180910390a450505050505050565b606060016000838152602001908152602001600020805461042f90611b67565b80601f016020809104026020016040519081016040528092919081815260200182805461045b90611b67565b80156104a85780601f1061047d576101008083540402835291602001916104a8565b820191906000526020600020905b81548152906001019060200180831161048b57829003601f168201915b50505050509050919050565b60606002600083815260200190815260200160002080546104d490611b67565b80601f016020809104026020016040519081016040528092919081815260200182805461050090611b67565b801561054d5780601f106105225761010080835404028352916020019161054d565b820191906000526020600020905b81548152906001019060200180831161053057829003601f168201915b50505050509050919050565b60008060008060006003600087815260200190815260200160002060000160009054906101000a900473ffffffffffffffffffffffffffffffffffffffff1660036000888152602001908152602001600020600101546003600089815260200190815260200160002060020154600360008a815260200190815260200160002060030160009054906101000a900460040b600360008b8152602001908152602001600020600401548160040b91509450945094509450945091939590929450565b60008060008473ffffffffffffffffffffffffffffffffffffffff1673ffffffffffffffffffffffffffffffffffffffff168152602001908152602001600020600083815260200190815260200160002060009054906101000a900469ffffffffffffffffffff16905092915050565b600033905060006003600085815260200190815260200160002060040154905060006003600086815260200190815260200160002060000160009054906101000a900473ffffffffffffffffffffffffffffffffffffffff16905060001515600460008573ffffffffffffffffffffffffffffffffffffffff1673ffffffffffffffffffffffffffffffffffffffff168152602001908152602001600020600087815260200190815260200160002060009054906101000a900460ff16151514610789576040517f08c379a000000000000000000000000000000000000000000000000000000000815260040161078090611715565b60405180910390fd5b600115156107988484876110c0565b1515146107da576040517f08c379a00000000000000000000000000000000000000000000000000000000081526004016107d1906116d5565b60405180910390fd5b60016003600087815260200190815260200160002060030160009054906101000a900460040b60040b12156108485760006003600087815260200190815260200160002060030160006101000a81548164ffffffffff021916908360040b64ffffffffff160217905561089e565b60016003600087815260200190815260200160002060030160008282829054906101000a900460040b61087b91906119e9565b92506101000a81548164ffffffffff021916908360040b64ffffffffff16021790555b508360ff166000808373ffffffffffffffffffffffffffffffffffffffff1673ffffffffffffffffffffffffffffffffffffffff168152602001908152602001600020600084815260200190815260200160002060009054906101000a900469ffffffffffffffffffff1669ffffffffffffffffffff16101561099a5760008060008373ffffffffffffffffffffffffffffffffffffffff1673ffffffffffffffffffffffffffffffffffffffff168152602001908152602001600020600084815260200190815260200160002060006101000a81548169ffffffffffffffffffff021916908369ffffffffffffffffffff1602179055610a3b565b8360ff166000808373ffffffffffffffffffffffffffffffffffffffff1673ffffffffffffffffffffffffffffffffffffffff168152602001908152602001600020600084815260200190815260200160002060008282829054906101000a900469ffffffffffffffffffff16610a119190611a62565b92506101000a81548169ffffffffffffffffffff021916908369ffffffffffffffffffff16021790555b506001600460008573ffffffffffffffffffffffffffffffffffffffff1673ffffffffffffffffffffffffffffffffffffffff168152602001908152602001600020600087815260200190815260200160002060006101000a81548160ff0219169083151502179055508273ffffffffffffffffffffffffffffffffffffffff168173ffffffffffffffffffffffffffffffffffffffff16867f01d21e353645a36d22513edbfe86f2d524130c25320a11ed375056ea54b427af6000808673ffffffffffffffffffffffffffffffffffffffff1673ffffffffffffffffffffffffffffffffffffffff168152602001908152602001600020600087815260200190815260200160002060009054906101000a900469ffffffffffffffffffff166000808973ffffffffffffffffffffffffffffffffffffffff1673ffffffffffffffffffffffffffffffffffffffff168152602001908152602001600020600088815260200190815260200160002060009054906101000a900469ffffffffffffffffffff16600360008c815260200190815260200160002060030160009054906101000a900460040b60008b604051610bf9959493929190611750565b60405180910390a45050505050565b600033905060006003600085815260200190815260200160002060040154905060006003600086815260200190815260200160002060000160009054906101000a900473ffffffffffffffffffffffffffffffffffffffff1690508273ffffffffffffffffffffffffffffffffffffffff166003600087815260200190815260200160002060000160009054906101000a900473ffffffffffffffffffffffffffffffffffffffff1673ffffffffffffffffffffffffffffffffffffffff161415610d08576040517f08c379a0000000000000000000000000000000000000000000000000000000008152600401610cff906116f5565b60405180910390fd5b60001515600460008573ffffffffffffffffffffffffffffffffffffffff1673ffffffffffffffffffffffffffffffffffffffff168152602001908152602001600020600087815260200190815260200160002060009054906101000a900460ff16151514610dac576040517f08c379a0000000000000000000000000000000000000000000000000000000008152600401610da390611715565b60405180910390fd5b60011515610dbb8484876110c0565b151514610dfd576040517f08c379a0000000000000000000000000000000000000000000000000000000008152600401610df4906116d5565b60405180910390fd5b60016003600087815260200190815260200160002060030160008282829054906101000a900460040b610e3091906117bf565b92506101000a81548164ffffffffff021916908360040b64ffffffffff1602179055508360ff166000808373ffffffffffffffffffffffffffffffffffffffff1673ffffffffffffffffffffffffffffffffffffffff168152602001908152602001600020600084815260200190815260200160002060008282829054906101000a900469ffffffffffffffffffff16610eca9190611838565b92506101000a81548169ffffffffffffffffffff021916908369ffffffffffffffffffff1602179055506001600460008573ffffffffffffffffffffffffffffffffffffffff1673ffffffffffffffffffffffffffffffffffffffff168152602001908152602001600020600087815260200190815260200160002060006101000a81548160ff0219169083151502179055508273ffffffffffffffffffffffffffffffffffffffff168173ffffffffffffffffffffffffffffffffffffffff16867f01d21e353645a36d22513edbfe86f2d524130c25320a11ed375056ea54b427af6000808673ffffffffffffffffffffffffffffffffffffffff1673ffffffffffffffffffffffffffffffffffffffff168152602001908152602001600020600087815260200190815260200160002060009054906101000a900469ffffffffffffffffffff166000808973ffffffffffffffffffffffffffffffffffffffff1673ffffffffffffffffffffffffffffffffffffffff168152602001908152602001600020600088815260200190815260200160002060009054906101000a900469ffffffffffffffffffff16600360008c815260200190815260200160002060030160009054906101000a900460040b60018b6040516110b1959493929190611750565b60405180910390a45050505050565b6000806000808673ffffffffffffffffffffffffffffffffffffffff1673ffffffffffffffffffffffffffffffffffffffff168152602001908152602001600020600085815260200190815260200160002060009054906101000a900469ffffffffffffffffffff16905060028169ffffffffffffffffffff1610156111615760018360ff161461115557600091508161115b565b60019150815b50611193565b8069ffffffffffffffffffff1683600261117b91906118cb565b111561118b576000915081611191565b60019150815b505b509392505050565b8280546111a790611b67565b90600052602060002090601f0160209004810192826111c95760008555611210565b82601f106111e257803560ff1916838001178555611210565b82800160010185558215611210579182015b8281111561120f5782358255916020019190600101906111f4565b5b50905061121d9190611221565b5090565b5b8082111561123a576000816000905550600101611222565b5090565b60008135905061124d81611c50565b92915050565b60008135905061126281611c67565b92915050565b60008083601f84011261127a57600080fd5b8235905067ffffffffffffffff81111561129357600080fd5b6020830191508360018202830111156112ab57600080fd5b9250929050565b6000813590506112c181611c7e565b92915050565b600080604083850312156112da57600080fd5b60006112e88582860161123e565b92505060206112f985828601611253565b9150509250929050565b60006020828403121561131557600080fd5b600061132384828501611253565b91505092915050565b6000806000806060858703121561134257600080fd5b600061135087828801611253565b945050602085013567ffffffffffffffff81111561136d57600080fd5b61137987828801611268565b9350935050604061138c87828801611253565b91505092959194509250565b600080604083850312156113ab57600080fd5b60006113b985828601611253565b92505060206113ca858286016112b2565b9150509250929050565b600080602083850312156113e757600080fd5b600083013567ffffffffffffffff81111561140157600080fd5b61140d85828601611268565b92509250509250929050565b61142281611a96565b82525050565b61143961143482611a96565b611b99565b82525050565b61144881611aa8565b82525050565b61145781611ab4565b82525050565b61146e61146982611ab4565b611bab565b82525050565b61147d81611abe565b82525050565b61148c81611acb565b82525050565b600061149e83856117ae565b93506114ab838584611b25565b6114b483611c25565b840190509392505050565b60006114ca826117a3565b6114d481856117ae565b93506114e4818560208601611b34565b6114ed81611c25565b840191505092915050565b60006115056018836117ae565b91507f546f6f206d616e792072657075746174696f6e207074732e00000000000000006000830152602082019050919050565b6000611545601d836117ae565b91507f596f752063616e277420766f746520796f7572206f776e20706f7374730000006000830152602082019050919050565b60006115856014836117ae565b91507f53656e64657220616c726561647920766f7465640000000000000000000000006000830152602082019050919050565b6115c181611b0f565b82525050565b6115d081611b02565b82525050565b60006115e28286611428565b6014820191506115f2828561145d565b602082019150611602828461145d565b602082019150819050949350505050565b600060a0820190506116286000830188611419565b611635602083018761144e565b611642604083018661144e565b61164f6060830185611483565b61165c608083018461144e565b9695505050505050565b600060408201905061167b600083018561144e565b611688602083018461144e565b9392505050565b600060208201905081810360008301526116aa818486611492565b90509392505050565b600060208201905081810360008301526116cd81846114bf565b905092915050565b600060208201905081810360008301526116ee816114f8565b9050919050565b6000602082019050818103600083015261170e81611538565b9050919050565b6000602082019050818103600083015261172e81611578565b9050919050565b600060208201905061174a60008301846115b8565b92915050565b600060a08201905061176560008301886115b8565b61177260208301876115b8565b61177f6040830186611474565b61178c606083018561143f565b61179960808301846115c7565b9695505050505050565b600081519050919050565b600082825260208201905092915050565b60006117ca82611abe565b91506117d583611abe565b925081647fffffffff038313600083121516156117f5576117f4611bc7565b5b817fffffffffffffffffffffffffffffffffffffffffffffffffffffff800000000003831260008312161561182d5761182c611bc7565b5b828201905092915050565b600061184382611b0f565b915061184e83611b0f565b92508269ffffffffffffffffffff0382111561186d5761186c611bc7565b5b828201905092915050565b6000808291508390505b60018511156118c25780860481111561189e5761189d611bc7565b5b60018516156118ad5780820291505b80810290506118bb85611c43565b9450611882565b94509492505050565b60006118d682611af8565b91506118e183611b02565b925061190e7fffffffffffffffffffffffffffffffffffffffffffffffffffffffffffffffff8484611916565b905092915050565b60008261192657600190506119e2565b8161193457600090506119e2565b816001811461194a576002811461195457611983565b60019150506119e2565b60ff84111561196657611965611bc7565b5b8360020a91508482111561197d5761197c611bc7565b5b506119e2565b5060208310610133831016604e8410600b84101617156119b85782820a9050838111156119b3576119b2611bc7565b5b6119e2565b6119c58484846001611878565b925090508184048111156119dc576119db611bc7565b5b81810290505b9392505050565b60006119f482611abe565b91506119ff83611abe565b9250827fffffffffffffffffffffffffffffffffffffffffffffffffffffff800000000001821260008412151615611a3a57611a39611bc7565b5b82647fffffffff018213600084121615611a5757611a56611bc7565b5b828203905092915050565b6000611a6d82611b0f565b9150611a7883611b0f565b925082821015611a8b57611a8a611bc7565b5b828203905092915050565b6000611aa182611ad8565b9050919050565b60008115159050919050565b6000819050919050565b60008160040b9050919050565b60008160080b9050919050565b600073ffffffffffffffffffffffffffffffffffffffff82169050919050565b6000819050919050565b600060ff82169050919050565b600069ffffffffffffffffffff82169050919050565b82818337600083830152505050565b60005b83811015611b52578082015181840152602081019050611b37565b83811115611b61576000848401525b50505050565b60006002820490506001821680611b7f57607f821691505b60208210811415611b9357611b92611bf6565b5b50919050565b6000611ba482611bb5565b9050919050565b6000819050919050565b6000611bc082611c36565b9050919050565b7f4e487b7100000000000000000000000000000000000000000000000000000000600052601160045260246000fd5b7f4e487b7100000000000000000000000000000000000000000000000000000000600052602260045260246000fd5b6000601f19601f8301169050919050565b60008160601b9050919050565b60008160011c9050919050565b611c5981611a96565b8114611c6457600080fd5b50565b611c7081611ab4565b8114611c7b57600080fd5b50565b611c8781611b02565b8114611c9257600080fd5b5056fea264697066735822122022dbbe4bd4198630d0e9c3d68fcb1b38001d3261e1b6c695ac91ab7a18a6d7c064736f6c63430008000033",
  "linkReferences": {},
  "deployedLinkReferences": {}
}