{
  "_format": "hh-sol-artifact-1",
  "contractName": "MainContract",
  "sourceName": "contracts/MainContract.sol",
  "abi": [
    {
      "anonymous": false,
      "inputs": [
        {
          "indexed": true,
          "internalType": "bytes32",
          "name": "categoryId",
          "type": "bytes32"
        },
        {
          "indexed": false,
          "internalType": "string",
          "name": "category",
          "type": "string"
        }
      ],
      "name": "CategoryCreated",
      "type": "event"
    },
    {
      "anonymous": false,
      "inputs": [
        {
          "indexed": true,
          "internalType": "bytes32",
          "name": "contentId",
          "type": "bytes32"
        },
        {
          "indexed": false,
          "internalType": "string",
          "name": "contentUri",
          "type": "string"
        }
      ],
      "name": "ContentAdded",
      "type": "event"
    },
    {
      "anonymous": false,
      "inputs": [
        {
          "indexed": true,
          "internalType": "bytes32",
          "name": "postId",
          "type": "bytes32"
        },
        {
          "indexed": true,
          "internalType": "address",
          "name": "postOwner",
          "type": "address"
        },
        {
          "indexed": true,
          "internalType": "bytes32",
          "name": "parentId",
          "type": "bytes32"
        },
        {
          "indexed": false,
          "internalType": "bytes32",
          "name": "contentId",
          "type": "bytes32"
        },
        {
          "indexed": false,
          "internalType": "bytes32",
          "name": "categoryId",
          "type": "bytes32"
        }
      ],
      "name": "PostCreated",
      "type": "event"
    },
    {
      "anonymous": false,
      "inputs": [
        {
          "indexed": true,
          "internalType": "bytes32",
          "name": "postId",
          "type": "bytes32"
        },
        {
          "indexed": true,
          "internalType": "address",
          "name": "postOwner",
          "type": "address"
        },
        {
          "indexed": true,
          "internalType": "address",
          "name": "voter",
          "type": "address"
        },
        {
          "indexed": false,
          "internalType": "uint80",
          "name": "reputationPostOwner",
          "type": "uint80"
        },
        {
          "indexed": false,
          "internalType": "uint80",
          "name": "reputationVoter",
          "type": "uint80"
        },
        {
          "indexed": false,
          "internalType": "int40",
          "name": "postVotes",
          "type": "int40"
        },
        {
          "indexed": false,
          "internalType": "bool",
          "name": "up",
          "type": "bool"
        },
        {
          "indexed": false,
          "internalType": "uint8",
          "name": "reputationAmount",
          "type": "uint8"
        }
      ],
      "name": "Voted",
      "type": "event"
    },
    {
      "inputs": [
        {
          "internalType": "string",
          "name": "_category",
          "type": "string"
        }
      ],
      "name": "addCategory",
      "outputs": [],
      "stateMutability": "nonpayable",
      "type": "function"
    },
    {
      "inputs": [
        {
          "internalType": "bytes32",
          "name": "_parentId",
          "type": "bytes32"
        },
        {
          "internalType": "string",
          "name": "_contentUri",
          "type": "string"
        },
        {
          "internalType": "bytes32",
          "name": "_categoryId",
          "type": "bytes32"
        }
      ],
      "name": "createPost",
      "outputs": [],
      "stateMutability": "nonpayable",
      "type": "function"
    },
    {
      "inputs": [
        {
          "internalType": "bytes32",
          "name": "_categoryId",
          "type": "bytes32"
        }
      ],
      "name": "getCategory",
      "outputs": [
        {
          "internalType": "string",
          "name": "",
          "type": "string"
        }
      ],
      "stateMutability": "view",
      "type": "function"
    },
    {
      "inputs": [
        {
          "internalType": "bytes32",
          "name": "_contentId",
          "type": "bytes32"
        }
      ],
      "name": "getContent",
      "outputs": [
        {
          "internalType": "string",
          "name": "",
          "type": "string"
        }
      ],
      "stateMutability": "view",
      "type": "function"
    },
    {
      "inputs": [
        {
          "internalType": "bytes32",
          "name": "_postId",
          "type": "bytes32"
        }
      ],
      "name": "getPost",
      "outputs": [
        {
          "internalType": "address",
          "name": "",
          "type": "address"
        },
        {
          "internalType": "bytes32",
          "name": "",
          "type": "bytes32"
        },
        {
          "internalType": "bytes32",
          "name": "",
          "type": "bytes32"
        },
        {
          "internalType": "int72",
          "name": "",
          "type": "int72"
        },
        {
          "internalType": "bytes32",
          "name": "",
          "type": "bytes32"
        }
      ],
      "stateMutability": "view",
      "type": "function"
    },
    {
      "inputs": [
        {
          "internalType": "address",
          "name": "_address",
          "type": "address"
        },
        {
          "internalType": "bytes32",
          "name": "_categoryID",
          "type": "bytes32"
        }
      ],
      "name": "getReputation",
      "outputs": [
        {
          "internalType": "uint80",
          "name": "",
          "type": "uint80"
        }
      ],
      "stateMutability": "view",
      "type": "function"
    },
    {
      "inputs": [
        {
          "internalType": "bytes32",
          "name": "_postId",
          "type": "bytes32"
        },
        {
          "internalType": "uint8",
          "name": "_reputationTaken",
          "type": "uint8"
        }
      ],
      "name": "voteDown",
      "outputs": [],
      "stateMutability": "nonpayable",
      "type": "function"
    },
    {
      "inputs": [
        {
          "internalType": "bytes32",
          "name": "_postId",
          "type": "bytes32"
        },
        {
          "internalType": "uint8",
          "name": "_reputationAdded",
          "type": "uint8"
        }
      ],
      "name": "voteUp",
      "outputs": [],
      "stateMutability": "nonpayable",
      "type": "function"
    }
  ],
  "bytecode": "0x608060405234801561001057600080fd5b50611cef806100206000396000f3fe608060405234801561001057600080fd5b50600436106100885760003560e01c806393e43bbe1161005b57806393e43bbe14610125578063b2fae27214610159578063e1957bf314610189578063f2287b3e146101a557610088565b80632e0dcbf71461008d57806333032b09146100a9578063473b084c146100c55780635cc15001146100f5575b600080fd5b6100a760048036038101906100a291906113d4565b6101c1565b005b6100c360048036038101906100be919061132c565b610250565b005b6100df60048036038101906100da9190611303565b61040f565b6040516100ec919061165c565b60405180910390f35b61010f600480360381019061010a9190611303565b6104b4565b60405161011c919061165c565b60405180910390f35b61013f600480360381019061013a9190611303565b610559565b6040516101509594939291906115bc565b60405180910390f35b610173600480360381019061016e91906112c7565b61061a565b60405161018091906116de565b60405180910390f35b6101a3600480360381019061019e9190611398565b61068a565b005b6101bf60048036038101906101ba9190611398565b610c08565b005b600082826040516020016101d6929190611638565b604051602081830303815290604052805190602001209050828260016000848152602001908152602001600020919061021092919061119b565b50807f42588c2617ffb1b380decf15f2134bd59bb002295bda52fe6e5bf92fc504d2498484604051610243929190611638565b60405180910390a2505050565b60003390506000848460405160200161026a929190611638565b60405160208183030381529060405280519060200120905060008287836040516020016102999392919061157f565b60405160208183030381529060405280519060200120905085856002600085815260200190815260200160002091906102d392919061119b565b50826003600083815260200190815260200160002060000160006101000a81548173ffffffffffffffffffffffffffffffffffffffff021916908373ffffffffffffffffffffffffffffffffffffffff160217905550866003600083815260200190815260200160002060010181905550816003600083815260200190815260200160002060020181905550836003600083815260200190815260200160002060040181905550817ffb281bb05c5ef4b3a5f374fffc0b351fe69873776a9d6c289682e1929cb4f08087876040516103ac929190611638565b60405180910390a2868373ffffffffffffffffffffffffffffffffffffffff16827fdd56be40fa15d802b8ddf46fb1480b3bef291828e21d8c168f8f96368716d7e485886040516103fe92919061160f565b60405180910390a450505050505050565b606060016000838152602001908152602001600020805461042f90611b10565b80601f016020809104026020016040519081016040528092919081815260200182805461045b90611b10565b80156104a85780601f1061047d576101008083540402835291602001916104a8565b820191906000526020600020905b81548152906001019060200180831161048b57829003601f168201915b50505050509050919050565b60606002600083815260200190815260200160002080546104d490611b10565b80601f016020809104026020016040519081016040528092919081815260200182805461050090611b10565b801561054d5780601f106105225761010080835404028352916020019161054d565b820191906000526020600020905b81548152906001019060200180831161053057829003601f168201915b50505050509050919050565b60008060008060006003600087815260200190815260200160002060000160009054906101000a900473ffffffffffffffffffffffffffffffffffffffff1660036000888152602001908152602001600020600101546003600089815260200190815260200160002060020154600360008a815260200190815260200160002060030160009054906101000a900460040b600360008b8152602001908152602001600020600401548160040b91509450945094509450945091939590929450565b60008060008473ffffffffffffffffffffffffffffffffffffffff1673ffffffffffffffffffffffffffffffffffffffff168152602001908152602001600020600083815260200190815260200160002060009054906101000a900469ffffffffffffffffffff16905092915050565b600033905060006003600085815260200190815260200160002060040154905060006003600086815260200190815260200160002060000160009054906101000a900473ffffffffffffffffffffffffffffffffffffffff16905060001515600460008573ffffffffffffffffffffffffffffffffffffffff1673ffffffffffffffffffffffffffffffffffffffff168152602001908152602001600020600087815260200190815260200160002060009054906101000a900460ff16151514610789576040517f08c379a0000000000000000000000000000000000000000000000000000000008152600401610780906116be565b60405180910390fd5b600115156107988484876110c0565b1515146107da576040517f08c379a00000000000000000000000000000000000000000000000000000000081526004016107d19061167e565b60405180910390fd5b60016003600087815260200190815260200160002060030160009054906101000a900460040b60040b12156108485760006003600087815260200190815260200160002060030160006101000a81548164ffffffffff021916908360040b64ffffffffff160217905561089e565b60016003600087815260200190815260200160002060030160008282829054906101000a900460040b61087b9190611992565b92506101000a81548164ffffffffff021916908360040b64ffffffffff16021790555b508360ff166000808373ffffffffffffffffffffffffffffffffffffffff1673ffffffffffffffffffffffffffffffffffffffff168152602001908152602001600020600084815260200190815260200160002060009054906101000a900469ffffffffffffffffffff1669ffffffffffffffffffff16101561099a5760008060008373ffffffffffffffffffffffffffffffffffffffff1673ffffffffffffffffffffffffffffffffffffffff168152602001908152602001600020600084815260200190815260200160002060006101000a81548169ffffffffffffffffffff021916908369ffffffffffffffffffff1602179055610a3b565b8360ff166000808373ffffffffffffffffffffffffffffffffffffffff1673ffffffffffffffffffffffffffffffffffffffff168152602001908152602001600020600084815260200190815260200160002060008282829054906101000a900469ffffffffffffffffffff16610a119190611a0b565b92506101000a81548169ffffffffffffffffffff021916908369ffffffffffffffffffff16021790555b506001600460008573ffffffffffffffffffffffffffffffffffffffff1673ffffffffffffffffffffffffffffffffffffffff168152602001908152602001600020600087815260200190815260200160002060006101000a81548160ff0219169083151502179055508273ffffffffffffffffffffffffffffffffffffffff168173ffffffffffffffffffffffffffffffffffffffff16867f01d21e353645a36d22513edbfe86f2d524130c25320a11ed375056ea54b427af6000808673ffffffffffffffffffffffffffffffffffffffff1673ffffffffffffffffffffffffffffffffffffffff168152602001908152602001600020600087815260200190815260200160002060009054906101000a900469ffffffffffffffffffff166000808973ffffffffffffffffffffffffffffffffffffffff1673ffffffffffffffffffffffffffffffffffffffff168152602001908152602001600020600088815260200190815260200160002060009054906101000a900469ffffffffffffffffffff16600360008c815260200190815260200160002060030160009054906101000a900460040b60008b604051610bf99594939291906116f9565b60405180910390a45050505050565b600033905060006003600085815260200190815260200160002060040154905060006003600086815260200190815260200160002060000160009054906101000a900473ffffffffffffffffffffffffffffffffffffffff1690508273ffffffffffffffffffffffffffffffffffffffff166003600087815260200190815260200160002060000160009054906101000a900473ffffffffffffffffffffffffffffffffffffffff1673ffffffffffffffffffffffffffffffffffffffff161415610d08576040517f08c379a0000000000000000000000000000000000000000000000000000000008152600401610cff9061169e565b60405180910390fd5b60001515600460008573ffffffffffffffffffffffffffffffffffffffff1673ffffffffffffffffffffffffffffffffffffffff168152602001908152602001600020600087815260200190815260200160002060009054906101000a900460ff16151514610dac576040517f08c379a0000000000000000000000000000000000000000000000000000000008152600401610da3906116be565b60405180910390fd5b60011515610dbb8484876110c0565b151514610dfd576040517f08c379a0000000000000000000000000000000000000000000000000000000008152600401610df49061167e565b60405180910390fd5b60016003600087815260200190815260200160002060030160008282829054906101000a900460040b610e309190611768565b92506101000a81548164ffffffffff021916908360040b64ffffffffff1602179055508360ff166000808373ffffffffffffffffffffffffffffffffffffffff1673ffffffffffffffffffffffffffffffffffffffff168152602001908152602001600020600084815260200190815260200160002060008282829054906101000a900469ffffffffffffffffffff16610eca91906117e1565b92506101000a81548169ffffffffffffffffffff021916908369ffffffffffffffffffff1602179055506001600460008573ffffffffffffffffffffffffffffffffffffffff1673ffffffffffffffffffffffffffffffffffffffff168152602001908152602001600020600087815260200190815260200160002060006101000a81548160ff0219169083151502179055508273ffffffffffffffffffffffffffffffffffffffff168173ffffffffffffffffffffffffffffffffffffffff16867f01d21e353645a36d22513edbfe86f2d524130c25320a11ed375056ea54b427af6000808673ffffffffffffffffffffffffffffffffffffffff1673ffffffffffffffffffffffffffffffffffffffff168152602001908152602001600020600087815260200190815260200160002060009054906101000a900469ffffffffffffffffffff166000808973ffffffffffffffffffffffffffffffffffffffff1673ffffffffffffffffffffffffffffffffffffffff168152602001908152602001600020600088815260200190815260200160002060009054906101000a900469ffffffffffffffffffff16600360008c815260200190815260200160002060030160009054906101000a900460040b60018b6040516110b19594939291906116f9565b60405180910390a45050505050565b6000806000808673ffffffffffffffffffffffffffffffffffffffff1673ffffffffffffffffffffffffffffffffffffffff168152602001908152602001600020600085815260200190815260200160002060009054906101000a900469ffffffffffffffffffff16905060028169ffffffffffffffffffff1610156111615760018360ff161461115557600091508161115b565b60019150815b50611193565b8069ffffffffffffffffffff1683600261117b9190611874565b111561118b576000915081611191565b60019150815b505b509392505050565b8280546111a790611b10565b90600052602060002090601f0160209004810192826111c95760008555611210565b82601f106111e257803560ff1916838001178555611210565b82800160010185558215611210579182015b8281111561120f5782358255916020019190600101906111f4565b5b50905061121d9190611221565b5090565b5b8082111561123a576000816000905550600101611222565b5090565b60008135905061124d81611c74565b92915050565b60008135905061126281611c8b565b92915050565b60008083601f84011261127a57600080fd5b8235905067ffffffffffffffff81111561129357600080fd5b6020830191508360018202830111156112ab57600080fd5b9250929050565b6000813590506112c181611ca2565b92915050565b600080604083850312156112da57600080fd5b60006112e88582860161123e565b92505060206112f985828601611253565b9150509250929050565b60006020828403121561131557600080fd5b600061132384828501611253565b91505092915050565b6000806000806060858703121561134257600080fd5b600061135087828801611253565b945050602085013567ffffffffffffffff81111561136d57600080fd5b61137987828801611268565b9350935050604061138c87828801611253565b91505092959194509250565b600080604083850312156113ab57600080fd5b60006113b985828601611253565b92505060206113ca858286016112b2565b9150509250929050565b600080602083850312156113e757600080fd5b600083013567ffffffffffffffff81111561140157600080fd5b61140d85828601611268565b92509250509250929050565b61142281611a3f565b82525050565b61143961143482611a3f565b611b42565b82525050565b61144881611a51565b82525050565b61145781611a5d565b82525050565b61146e61146982611a5d565b611b54565b82525050565b61147d81611a67565b82525050565b61148c81611a74565b82525050565b600061149e8385611757565b93506114ab838584611ace565b6114b483611bce565b840190509392505050565b60006114ca8261174c565b6114d48185611757565b93506114e4818560208601611add565b6114ed81611bce565b840191505092915050565b6000611505601883611757565b915061151082611bf9565b602082019050919050565b6000611528601d83611757565b915061153382611c22565b602082019050919050565b600061154b601483611757565b915061155682611c4b565b602082019050919050565b61156a81611ab8565b82525050565b61157981611aab565b82525050565b600061158b8286611428565b60148201915061159b828561145d565b6020820191506115ab828461145d565b602082019150819050949350505050565b600060a0820190506115d16000830188611419565b6115de602083018761144e565b6115eb604083018661144e565b6115f86060830185611483565b611605608083018461144e565b9695505050505050565b6000604082019050611624600083018561144e565b611631602083018461144e565b9392505050565b60006020820190508181036000830152611653818486611492565b90509392505050565b6000602082019050818103600083015261167681846114bf565b905092915050565b60006020820190508181036000830152611697816114f8565b9050919050565b600060208201905081810360008301526116b78161151b565b9050919050565b600060208201905081810360008301526116d78161153e565b9050919050565b60006020820190506116f36000830184611561565b92915050565b600060a08201905061170e6000830188611561565b61171b6020830187611561565b6117286040830186611474565b611735606083018561143f565b6117426080830184611570565b9695505050505050565b600081519050919050565b600082825260208201905092915050565b600061177382611a67565b915061177e83611a67565b925081647fffffffff0383136000831215161561179e5761179d611b70565b5b817fffffffffffffffffffffffffffffffffffffffffffffffffffffff80000000000383126000831216156117d6576117d5611b70565b5b828201905092915050565b60006117ec82611ab8565b91506117f783611ab8565b92508269ffffffffffffffffffff0382111561181657611815611b70565b5b828201905092915050565b6000808291508390505b600185111561186b5780860481111561184757611846611b70565b5b60018516156118565780820291505b808102905061186485611bec565b945061182b565b94509492505050565b600061187f82611aa1565b915061188a83611aab565b92506118b77fffffffffffffffffffffffffffffffffffffffffffffffffffffffffffffffff84846118bf565b905092915050565b6000826118cf576001905061198b565b816118dd576000905061198b565b81600181146118f357600281146118fd5761192c565b600191505061198b565b60ff84111561190f5761190e611b70565b5b8360020a91508482111561192657611925611b70565b5b5061198b565b5060208310610133831016604e8410600b84101617156119615782820a90508381111561195c5761195b611b70565b5b61198b565b61196e8484846001611821565b9250905081840481111561198557611984611b70565b5b81810290505b9392505050565b600061199d82611a67565b91506119a883611a67565b9250827fffffffffffffffffffffffffffffffffffffffffffffffffffffff8000000000018212600084121516156119e3576119e2611b70565b5b82647fffffffff018213600084121615611a00576119ff611b70565b5b828203905092915050565b6000611a1682611ab8565b9150611a2183611ab8565b925082821015611a3457611a33611b70565b5b828203905092915050565b6000611a4a82611a81565b9050919050565b60008115159050919050565b6000819050919050565b60008160040b9050919050565b60008160080b9050919050565b600073ffffffffffffffffffffffffffffffffffffffff82169050919050565b6000819050919050565b600060ff82169050919050565b600069ffffffffffffffffffff82169050919050565b82818337600083830152505050565b60005b83811015611afb578082015181840152602081019050611ae0565b83811115611b0a576000848401525b50505050565b60006002820490506001821680611b2857607f821691505b60208210811415611b3c57611b3b611b9f565b5b50919050565b6000611b4d82611b5e565b9050919050565b6000819050919050565b6000611b6982611bdf565b9050919050565b7f4e487b7100000000000000000000000000000000000000000000000000000000600052601160045260246000fd5b7f4e487b7100000000000000000000000000000000000000000000000000000000600052602260045260246000fd5b6000601f19601f8301169050919050565b60008160601b9050919050565b60008160011c9050919050565b7f546f6f206d616e792072657075746174696f6e207074732e0000000000000000600082015250565b7f596f752063616e277420766f746520796f7572206f776e20706f737473000000600082015250565b7f53656e64657220616c726561647920766f746564000000000000000000000000600082015250565b611c7d81611a3f565b8114611c8857600080fd5b50565b611c9481611a5d565b8114611c9f57600080fd5b50565b611cab81611aab565b8114611cb657600080fd5b5056fea2646970667358221220c81d0635d84eb9a23396088e6a723190f251620031c06f3c05635f96bdf11b6264736f6c63430008040033",
  "linkReferences": {},
  "deployedLinkReferences": {}
}